{"abi":[{"type":"constructor","inputs":[],"stateMutability":"nonpayable"},{"type":"function","name":"UPGRADE_INTERFACE_VERSION","inputs":[],"outputs":[{"name":"","type":"string","internalType":"string"}],"stateMutability":"view"},{"type":"function","name":"admin","inputs":[],"outputs":[{"name":"","type":"address","internalType":"address"}],"stateMutability":"view"},{"type":"function","name":"beacon","inputs":[],"outputs":[{"name":"","type":"address","internalType":"contract UpgradeableBeacon"}],"stateMutability":"view"},{"type":"function","name":"createSlot","inputs":[{"name":"recipient","type":"address","internalType":"address"},{"name":"currency","type":"address","internalType":"contract IERC20"},{"name":"config","type":"tuple","internalType":"struct SlotConfig","components":[{"name":"mutableTax","type":"bool","internalType":"bool"},{"name":"mutableModule","type":"bool","internalType":"bool"},{"name":"manager","type":"address","internalType":"address"}]},{"name":"initParams","type":"tuple","internalType":"struct SlotInitParams","components":[{"name":"taxPercentage","type":"uint256","internalType":"uint256"},{"name":"module","type":"address","internalType":"address"},{"name":"liquidationBountyBps","type":"uint256","internalType":"uint256"},{"name":"minDepositSeconds","type":"uint256","internalType":"uint256"}]}],"outputs":[{"name":"slot","type":"address","internalType":"address"}],"stateMutability":"nonpayable"},{"type":"function","name":"createSlots","inputs":[{"name":"recipient","type":"address","internalType":"address"},{"name":"currency","type":"address","internalType":"contract IERC20"},{"name":"config","type":"tuple","internalType":"struct SlotConfig","components":[{"name":"mutableTax","type":"bool","internalType":"bool"},{"name":"mutableModule","type":"bool","internalType":"bool"},{"name":"manager","type":"address","internalType":"address"}]},{"name":"initParams","type":"tuple","internalType":"struct SlotInitParams","components":[{"name":"taxPercentage","type":"uint256","internalType":"uint256"},{"name":"module","type":"address","internalType":"address"},{"name":"liquidationBountyBps","type":"uint256","internalType":"uint256"},{"name":"minDepositSeconds","type":"uint256","internalType":"uint256"}]},{"name":"count","type":"uint256","internalType":"uint256"}],"outputs":[{"name":"slots","type":"address[]","internalType":"address[]"}],"stateMutability":"nonpayable"},{"type":"function","name":"emitEvent","inputs":[{"name":"eventType","type":"uint8","internalType":"uint8"},{"name":"data","type":"bytes","internalType":"bytes"}],"outputs":[],"stateMutability":"nonpayable"},{"type":"function","name":"implementation","inputs":[],"outputs":[{"name":"","type":"address","internalType":"address"}],"stateMutability":"view"},{"type":"function","name":"initialize","inputs":[{"name":"_admin","type":"address","internalType":"address"},{"name":"_slotImplementation","type":"address","internalType":"address"}],"outputs":[],"stateMutability":"nonpayable"},{"type":"function","name":"isModuleVerified","inputs":[{"name":"module","type":"address","internalType":"address"}],"outputs":[{"name":"","type":"bool","internalType":"bool"}],"stateMutability":"view"},{"type":"function","name":"isSlot","inputs":[{"name":"","type":"address","internalType":"address"}],"outputs":[{"name":"","type":"bool","internalType":"bool"}],"stateMutability":"view"},{"type":"function","name":"migrateSlots","inputs":[{"name":"slots","type":"address[]","internalType":"address[]"}],"outputs":[],"stateMutability":"nonpayable"},{"type":"function","name":"proxiableUUID","inputs":[],"outputs":[{"name":"","type":"bytes32","internalType":"bytes32"}],"stateMutability":"view"},{"type":"function","name":"registerSlots","inputs":[{"name":"slots","type":"address[]","internalType":"address[]"}],"outputs":[],"stateMutability":"nonpayable"},{"type":"function","name":"setModuleVerified","inputs":[{"name":"_module","type":"address","internalType":"address"},{"name":"verified","type":"bool","internalType":"bool"}],"outputs":[],"stateMutability":"nonpayable"},{"type":"function","name":"transferAdmin","inputs":[{"name":"newAdmin","type":"address","internalType":"address"}],"outputs":[],"stateMutability":"nonpayable"},{"type":"function","name":"upgradeToAndCall","inputs":[{"name":"newImplementation","type":"address","internalType":"address"},{"name":"data","type":"bytes","internalType":"bytes"}],"outputs":[],"stateMutability":"payable"},{"type":"function","name":"verifiedModules","inputs":[{"name":"","type":"address","internalType":"address"}],"outputs":[{"name":"","type":"bool","internalType":"bool"}],"stateMutability":"view"},{"type":"event","name":"AdminTransferred","inputs":[{"name":"previousAdmin","type":"address","indexed":true,"internalType":"address"},{"name":"newAdmin","type":"address","indexed":true,"internalType":"address"}],"anonymous":false},{"type":"event","name":"ModuleVerified","inputs":[{"name":"module","type":"address","indexed":true,"internalType":"address"},{"name":"verified","type":"bool","indexed":false,"internalType":"bool"},{"name":"name","type":"string","indexed":false,"internalType":"string"},{"name":"version","type":"string","indexed":false,"internalType":"string"},{"name":"feeBps","type":"uint256","indexed":false,"internalType":"uint256"},{"name":"moduleURI","type":"string","indexed":false,"internalType":"string"}],"anonymous":false},{"type":"event","name":"SlotDeployed","inputs":[{"name":"slot","type":"address","indexed":true,"internalType":"address"},{"name":"recipient","type":"address","indexed":true,"internalType":"address"},{"name":"currency","type":"address","indexed":true,"internalType":"address"},{"name":"config","type":"tuple","indexed":false,"internalType":"struct SlotConfig","components":[{"name":"mutableTax","type":"bool","internalType":"bool"},{"name":"mutableModule","type":"bool","internalType":"bool"},{"name":"manager","type":"address","internalType":"address"}]},{"name":"initParams","type":"tuple","indexed":false,"internalType":"struct SlotInitParams","components":[{"name":"taxPercentage","type":"uint256","internalType":"uint256"},{"name":"module","type":"address","internalType":"address"},{"name":"liquidationBountyBps","type":"uint256","internalType":"uint256"},{"name":"minDepositSeconds","type":"uint256","internalType":"uint256"}]}],"anonymous":false},{"type":"event","name":"SlotEvent","inputs":[{"name":"slot","type":"address","indexed":true,"internalType":"address"},{"name":"eventType","type":"uint8","indexed":true,"internalType":"uint8"},{"name":"data","type":"bytes","indexed":false,"internalType":"bytes"}],"anonymous":false},{"type":"event","name":"Upgraded","inputs":[{"name":"implementation","type":"address","indexed":true,"internalType":"address"}],"anonymous":false},{"type":"error","name":"AddressEmptyCode","inputs":[{"name":"target","type":"address","internalType":"address"}]},{"type":"error","name":"AlreadyInitialized","inputs":[]},{"type":"error","name":"ERC1967InvalidImplementation","inputs":[{"name":"implementation","type":"address","internalType":"address"}]},{"type":"error","name":"ERC1967NonPayable","inputs":[]},{"type":"error","name":"FailedCall","inputs":[]},{"type":"error","name":"InvalidConfig_ManagerMustBeZero","inputs":[]},{"type":"error","name":"InvalidConfig_ManagerRequired","inputs":[]},{"type":"error","name":"InvalidCount","inputs":[]},{"type":"error","name":"InvalidTaxPercentage","inputs":[]},{"type":"error","name":"NotAdmin","inputs":[]},{"type":"error","name":"UUPSUnauthorizedCallContext","inputs":[]},{"type":"error","name":"UUPSUnsupportedProxiableUUID","inputs":[{"name":"slot","type":"bytes32","internalType":"bytes32"}]}],"bytecode":{"object":"0x60a0604052306080523480156012575f5ffd5b506002805460ff60a01b1916600160a01b1790556080516121b561004c5f395f8181610d5101528181610d7a0152610ee101526121b55ff3fe6080604052600436106100fa575f3560e01c806375829def116100925780639c41d4a4116100625780639c41d4a4146102b3578063ad3cb1cc146102df578063befb8d3d1461031c578063ed20d4891461033b578063f851a44014610369575f5ffd5b806375829def146102285780637ae5592e146102475780638e53cf9a1461026657806394c906a214610294575f5ffd5b80635140f7b9116100cd5780635140f7b9146101b557806352d1902d146101d457806359659e90146101f65780635c60da1b14610214575f5ffd5b8063485cc955146100fe5780634ca28e2a1461011f5780634f1ef2861461015b578063508d61121461016e575b5f5ffd5b348015610109575f5ffd5b5061011d6101183660046110fc565b610388565b005b34801561012a575f5ffd5b5061013e610139366004611264565b610439565b6040516001600160a01b0390911681526020015b60405180910390f35b61011d6101693660046112e3565b610459565b348015610179575f5ffd5b506101a5610188366004611370565b6001600160a01b03165f9081526001602052604090205460ff1690565b6040519015158152602001610152565b3480156101c0575f5ffd5b5061011d6101cf366004611392565b610478565b3480156101df575f5ffd5b506101e8610741565b604051908152602001610152565b348015610201575f5ffd5b505f5461013e906001600160a01b031681565b34801561021f575f5ffd5b5061013e61075c565b348015610233575f5ffd5b5061011d610242366004611370565b6107d5565b348015610252575f5ffd5b5061011d6102613660046113be565b61085b565b348015610271575f5ffd5b506101a5610280366004611370565b60016020525f908152604090205460ff1681565b34801561029f575f5ffd5b5061011d6102ae3660046113be565b6108f0565b3480156102be575f5ffd5b506102d26102cd36600461142f565b610a01565b604051610152919061148f565b3480156102ea575f5ffd5b5061030f604051806040016040528060058152602001640352e302e360dc1b81525081565b6040516101529190611508565b348015610327575f5ffd5b5061011d61033636600461151a565b610ac4565b348015610346575f5ffd5b506101a5610355366004611370565b60036020525f908152604090205460ff1681565b348015610374575f5ffd5b5060025461013e906001600160a01b031681565b600254600160a01b900460ff16156103b25760405162dc149f60e41b815260040160405180910390fd5b600280546001600160a01b0384166001600160a81b031990911617600160a01b179055604051819083906103e5906110ce565b6001600160a01b03928316815291166020820152604001604051809103905ff080158015610415573d5f5f3e3d5ffd5b505f80546001600160a01b0319166001600160a01b03929092169190911790555050565b5f6104448383610b5b565b61045085858585610beb565b95945050505050565b610461610d46565b61046a82610dec565b6104748282610e1a565b5050565b6002546001600160a01b031633146104a357604051637bfa4b9f60e01b815260040160405180910390fd5b6040516301ffc9a760e01b81526313b8611760e21b600482015282906001600160a01b038216906301ffc9a790602401602060405180830381865afa1580156104ee573d5f5f3e3d5ffd5b505050506040513d601f19601f82011682018060405250810190610512919061159f565b6105565760405162461bcd60e51b815260206004820152601060248201526f6e6f742049536c6f74734d6f64756c6560801b60448201526064015b60405180910390fd5b6001600160a01b038381165f81815260016020526040808220805460ff191687151517905580516306fdde0360e01b8152905192937f3eccb79538afe68137cf37e88a1764b59cceaa66f0c4deb0751f178446b58656938793918716926306fdde039260048083019391928290030181865afa1580156105d8573d5f5f3e3d5ffd5b505050506040513d5f823e601f3d908101601f191682016040526105ff91908101906115ba565b846001600160a01b03166354fd4d506040518163ffffffff1660e01b81526004015f60405180830381865afa15801561063a573d5f5f3e3d5ffd5b505050506040513d5f823e601f3d908101601f1916820160405261066191908101906115ba565b856001600160a01b03166324a9d8536040518163ffffffff1660e01b8152600401602060405180830381865afa15801561069d573d5f5f3e3d5ffd5b505050506040513d601f19601f820116820180604052508101906106c1919061162f565b866001600160a01b031663e888a3a56040518163ffffffff1660e01b81526004015f60405180830381865afa1580156106fc573d5f5f3e3d5ffd5b505050506040513d5f823e601f3d908101601f1916820160405261072391908101906115ba565b604051610734959493929190611646565b60405180910390a2505050565b5f61074a610ed6565b505f5160206121605f395f51905f5290565b5f5f5f9054906101000a90046001600160a01b03166001600160a01b0316635c60da1b6040518163ffffffff1660e01b8152600401602060405180830381865afa1580156107ac573d5f5f3e3d5ffd5b505050506040513d601f19601f820116820180604052508101906107d09190611698565b905090565b6002546001600160a01b0316331461080057604051637bfa4b9f60e01b815260040160405180910390fd5b6002546040516001600160a01b038084169216907ff8ccb027dfcd135e000e9d45e6cc2d662578a8825d4c45b5e32e0adf67e79ec6905f90a3600280546001600160a01b0319166001600160a01b0392909216919091179055565b6002546001600160a01b0316331461088657604051637bfa4b9f60e01b815260040160405180910390fd5b5f5b818110156108eb57600160035f8585858181106108a7576108a76116b3565b90506020020160208101906108bc9190611370565b6001600160a01b0316815260208101919091526040015f20805460ff1916911515919091179055600101610888565b505050565b6002546001600160a01b0316331461091b57604051637bfa4b9f60e01b815260040160405180910390fd5b5f5b818110156108eb57600160035f85858581811061093c5761093c6116b3565b90506020020160208101906109519190611370565b6001600160a01b0316815260208101919091526040015f20805460ff191691151591909117905582828281811061098a5761098a6116b3565b905060200201602081019061099f9190611370565b6040516329b6eca960e01b81523060048201526001600160a01b0391909116906329b6eca9906024015f604051808303815f87803b1580156109df575f5ffd5b505af11580156109f1573d5f5f3e3d5ffd5b50506001909201915061091d9050565b6060815f03610a2357604051631a49577b60e11b815260040160405180910390fd5b610a2d8484610b5b565b8167ffffffffffffffff811115610a4657610a46611133565b604051908082528060200260200182016040528015610a6f578160200160208202803683370190505b5090505f5b82811015610aba57610a8887878787610beb565b828281518110610a9a57610a9a6116b3565b6001600160a01b0390921660209283029190910190910152600101610a74565b5095945050505050565b335f9081526003602052604090205460ff16610b0f5760405162461bcd60e51b815260206004820152600a6024820152691b9bdd0818481cdb1bdd60b21b604482015260640161054d565b8260ff16336001600160a01b03167f68c05b88ad72abe8500003aa081ffb5aefcf636abc0c3f614755c9de30ae955d8484604051610b4e9291906116c7565b60405180910390a3505050565b815180610b69575081602001515b15610b9e5760408201516001600160a01b0316610b9957604051636787d18d60e11b815260040160405180910390fd5b610bca565b60408201516001600160a01b031615610bca576040516365f335bb60e11b815260040160405180910390fd5b80515f0361047457604051637c5ae86360e01b815260040160405180910390fd5b5f5f85858585604051602401610c0494939291906116f5565b60408051601f198184030181529181526020820180516001600160e01b0316631563941f60e01b1790525f80549151929350916001600160a01b03909116908390610c4e906110db565b610c59929190611770565b604051809103905ff080158015610c72573d5f5f3e3d5ffd5b506001600160a01b0381165f8181526003602052604090819020805460ff19166001179055516329b6eca960e01b8152306004820152919450849250906329b6eca9906024015f604051808303815f87803b158015610ccf575f5ffd5b505af1158015610ce1573d5f5f3e3d5ffd5b50505050856001600160a01b0316876001600160a01b0316846001600160a01b03167fd1341b15d24a0be032f3070adfb3fe2bb91b859d5e51ef65805c73b6fa55dacb8888604051610d3492919061179b565b60405180910390a45050949350505050565b306001600160a01b037f0000000000000000000000000000000000000000000000000000000000000000161480610dcc57507f00000000000000000000000000000000000000000000000000000000000000006001600160a01b0316610dc05f5160206121605f395f51905f52546001600160a01b031690565b6001600160a01b031614155b15610dea5760405163703e46dd60e11b815260040160405180910390fd5b565b6002546001600160a01b03163314610e1757604051637bfa4b9f60e01b815260040160405180910390fd5b50565b816001600160a01b03166352d1902d6040518163ffffffff1660e01b8152600401602060405180830381865afa925050508015610e74575060408051601f3d908101601f19168201909252610e719181019061162f565b60015b610e9c57604051634c9c8ce360e01b81526001600160a01b038316600482015260240161054d565b5f5160206121605f395f51905f528114610ecc57604051632a87526960e21b81526004810182905260240161054d565b6108eb8383610f1f565b306001600160a01b037f00000000000000000000000000000000000000000000000000000000000000001614610dea5760405163703e46dd60e11b815260040160405180910390fd5b610f2882610f74565b6040516001600160a01b038316907fbc7cd75a20ee27fd9adebab32041f755214dbc6bffa90cc0225b39da2e5c2d3b905f90a2805115610f6c576108eb8282610fd7565b610474611078565b806001600160a01b03163b5f03610fa957604051634c9c8ce360e01b81526001600160a01b038216600482015260240161054d565b5f5160206121605f395f51905f5280546001600160a01b0319166001600160a01b0392909216919091179055565b60605f610fe48484611097565b905080801561100557505f3d118061100557505f846001600160a01b03163b115b1561101a576110126110aa565b915050611072565b801561104457604051639996b31560e01b81526001600160a01b038516600482015260240161054d565b3d15611057576110526110c3565b611070565b60405163d6bda27560e01b815260040160405180910390fd5b505b92915050565b3415610dea5760405163b398979f60e01b815260040160405180910390fd5b5f5f5f835160208501865af49392505050565b6040513d81523d5f602083013e3d602001810160405290565b6040513d5f823e3d81fd5b610421806117fa83390190565b61054580611c1b83390190565b6001600160a01b0381168114610e17575f5ffd5b5f5f6040838503121561110d575f5ffd5b8235611118816110e8565b91506020830135611128816110e8565b809150509250929050565b634e487b7160e01b5f52604160045260245ffd5b604051601f8201601f1916810167ffffffffffffffff8111828210171561117057611170611133565b604052919050565b8015158114610e17575f5ffd5b5f60608284031215611195575f5ffd5b6040516060810167ffffffffffffffff811182821017156111b8576111b8611133565b60405290508082356111c981611178565b815260208301356111d981611178565b602082015260408301356111ec816110e8565b6040919091015292915050565b5f60808284031215611209575f5ffd5b6040516080810167ffffffffffffffff8111828210171561122c5761122c611133565b604052823581529050806020830135611244816110e8565b602082015260408381013590820152606092830135920191909152919050565b5f5f5f5f6101208587031215611278575f5ffd5b8435611283816110e8565b93506020850135611293816110e8565b92506112a28660408701611185565b91506112b18660a087016111f9565b905092959194509250565b5f67ffffffffffffffff8211156112d5576112d5611133565b50601f01601f191660200190565b5f5f604083850312156112f4575f5ffd5b82356112ff816110e8565b9150602083013567ffffffffffffffff81111561131a575f5ffd5b8301601f8101851361132a575f5ffd5b803561133d611338826112bc565b611147565b818152866020838501011115611351575f5ffd5b816020840160208301375f602083830101528093505050509250929050565b5f60208284031215611380575f5ffd5b813561138b816110e8565b9392505050565b5f5f604083850312156113a3575f5ffd5b82356113ae816110e8565b9150602083013561112881611178565b5f5f602083850312156113cf575f5ffd5b823567ffffffffffffffff8111156113e5575f5ffd5b8301601f810185136113f5575f5ffd5b803567ffffffffffffffff81111561140b575f5ffd5b8560208260051b840101111561141f575f5ffd5b6020919091019590945092505050565b5f5f5f5f5f6101408688031215611444575f5ffd5b853561144f816110e8565b9450602086013561145f816110e8565b935061146e8760408801611185565b925061147d8760a088016111f9565b94979396509194610120013592915050565b602080825282518282018190525f918401906040840190835b818110156114cf5783516001600160a01b03168352602093840193909201916001016114a8565b509095945050505050565b5f81518084528060208401602086015e5f602082860101526020601f19601f83011685010191505092915050565b602081525f61138b60208301846114da565b5f5f5f6040848603121561152c575f5ffd5b833560ff8116811461153c575f5ffd5b9250602084013567ffffffffffffffff811115611557575f5ffd5b8401601f81018613611567575f5ffd5b803567ffffffffffffffff81111561157d575f5ffd5b86602082840101111561158e575f5ffd5b939660209190910195509293505050565b5f602082840312156115af575f5ffd5b815161138b81611178565b5f602082840312156115ca575f5ffd5b815167ffffffffffffffff8111156115e0575f5ffd5b8201601f810184136115f0575f5ffd5b80516115fe611338826112bc565b818152856020838501011115611612575f5ffd5b8160208401602083015e5f91810160200191909152949350505050565b5f6020828403121561163f575f5ffd5b5051919050565b851515815260a060208201525f61166060a08301876114da565b828103604084015261167281876114da565b9050846060840152828103608084015261168c81856114da565b98975050505050505050565b5f602082840312156116a8575f5ffd5b815161138b816110e8565b634e487b7160e01b5f52603260045260245ffd5b60208152816020820152818360408301375f818301604090810191909152601f909201601f19160101919050565b6001600160a01b03858116825284166020820152610120810161173c60408301858051151582526020808201511515908301526040908101516001600160a01b0316910152565b825160a083015260208301516001600160a01b031660c0830152604083015160e08301526060830151610100830152610450565b6001600160a01b03831681526040602082018190525f90611793908301846114da565b949350505050565b8251151581526020808401511515908201526040808401516001600160a01b03169082015260e08101825160608381019190915260208401516001600160a01b03166080840152604084015160a084015283015160c083015261138b56fe608060405234801561000f575f5ffd5b5060405161042138038061042183398101604081905261002e9161015f565b806001600160a01b03811661005d57604051631e4fbdf760e01b81525f60048201526024015b60405180910390fd5b61006681610077565b50610070826100c6565b5050610190565b5f80546001600160a01b038381166001600160a01b0319831681178455604051919092169283917f8be0079c531659141344cd1fd0a4f28419497f9722a3daafe3b4186f6b6457e09190a35050565b806001600160a01b03163b5f036100fb5760405163211eb15960e21b81526001600160a01b0382166004820152602401610054565b600180546001600160a01b0319166001600160a01b0383169081179091556040517fbc7cd75a20ee27fd9adebab32041f755214dbc6bffa90cc0225b39da2e5c2d3b905f90a250565b80516001600160a01b038116811461015a575f5ffd5b919050565b5f5f60408385031215610170575f5ffd5b61017983610144565b915061018760208401610144565b90509250929050565b6102848061019d5f395ff3fe608060405234801561000f575f5ffd5b5060043610610055575f3560e01c80633659cfe6146100595780635c60da1b1461006e578063715018a6146100975780638da5cb5b1461009f578063f2fde38b146100af575b5f5ffd5b61006c610067366004610221565b6100c2565b005b6001546001600160a01b03165b6040516001600160a01b03909116815260200160405180910390f35b61006c6100d6565b5f546001600160a01b031661007b565b61006c6100bd366004610221565b6100e9565b6100ca610128565b6100d381610154565b50565b6100de610128565b6100e75f6101d2565b565b6100f1610128565b6001600160a01b03811661011f57604051631e4fbdf760e01b81525f60048201526024015b60405180910390fd5b6100d3816101d2565b5f546001600160a01b031633146100e75760405163118cdaa760e01b8152336004820152602401610116565b806001600160a01b03163b5f036101895760405163211eb15960e21b81526001600160a01b0382166004820152602401610116565b600180546001600160a01b0319166001600160a01b0383169081179091556040517fbc7cd75a20ee27fd9adebab32041f755214dbc6bffa90cc0225b39da2e5c2d3b905f90a250565b5f80546001600160a01b038381166001600160a01b0319831681178455604051919092169283917f8be0079c531659141344cd1fd0a4f28419497f9722a3daafe3b4186f6b6457e09190a35050565b5f60208284031215610231575f5ffd5b81356001600160a01b0381168114610247575f5ffd5b939250505056fea26469706673582212200dc2a642661a9c66e52c0a7bd8af02e25a84b5bdbbddb2e943ae226330e95cfd64736f6c634300081d003360a060405260405161054538038061054583398101604081905261002291610331565b61002c828261003e565b506001600160a01b0316608052610413565b610047826100fb565b6040516001600160a01b038316907f1cf3b03a6cf19fa2baba4df148e9dcabedea7f8a5c07840e207e5c089be95d3e905f90a28051156100ef576100ea826001600160a01b0316635c60da1b6040518163ffffffff1660e01b8152600401602060405180830381865afa1580156100c0573d5f5f3e3d5ffd5b505050506040513d601f19601f820116820180604052508101906100e491906103f3565b82610209565b505050565b6100f76102aa565b5050565b806001600160a01b03163b5f0361013557604051631933b43b60e21b81526001600160a01b03821660048201526024015b60405180910390fd5b807fa3f0ad74e5423aebfd80d3ef4346578335a9a72aeaee59ff6cb3582b35133d5080546001600160a01b0319166001600160a01b0392831617905560408051635c60da1b60e01b815290515f92841691635c60da1b9160048083019260209291908290030181865afa1580156101ae573d5f5f3e3d5ffd5b505050506040513d601f19601f820116820180604052508101906101d291906103f3565b9050806001600160a01b03163b5f036100f757604051634c9c8ce360e01b81526001600160a01b038216600482015260240161012c565b60605f61021684846102cb565b905080801561023757505f3d118061023757505f846001600160a01b03163b115b1561024c576102446102de565b9150506102a4565b801561027657604051639996b31560e01b81526001600160a01b038516600482015260240161012c565b3d15610289576102846102f7565b6102a2565b60405163d6bda27560e01b815260040160405180910390fd5b505b92915050565b34156102c95760405163b398979f60e01b815260040160405180910390fd5b565b5f5f5f835160208501865af49392505050565b6040513d81523d5f602083013e3d602001810160405290565b6040513d5f823e3d81fd5b80516001600160a01b0381168114610318575f5ffd5b919050565b634e487b7160e01b5f52604160045260245ffd5b5f5f60408385031215610342575f5ffd5b61034b83610302565b60208401519092506001600160401b03811115610366575f5ffd5b8301601f81018513610376575f5ffd5b80516001600160401b0381111561038f5761038f61031d565b604051601f8201601f19908116603f011681016001600160401b03811182821017156103bd576103bd61031d565b6040528181528282016020018710156103d4575f5ffd5b8160208401602083015e5f602083830101528093505050509250929050565b5f60208284031215610403575f5ffd5b61040c82610302565b9392505050565b60805161011b61042a5f395f601d015261011b5ff3fe6080604052600a600c565b005b60186014601a565b609d565b565b5f7f00000000000000000000000000000000000000000000000000000000000000006001600160a01b0316635c60da1b6040518163ffffffff1660e01b8152600401602060405180830381865afa1580156076573d5f5f3e3d5ffd5b505050506040513d601f19601f820116820180604052508101906098919060ba565b905090565b365f5f375f5f365f845af43d5f5f3e80801560b6573d5ff35b3d5ffd5b5f6020828403121560c9575f5ffd5b81516001600160a01b038116811460de575f5ffd5b939250505056fea2646970667358221220240ef4b88c16a7554f2b2e149e2087caa993d12d4fc2e8631b1306d48135393164736f6c634300081d0033360894a13ba1a3210667c828492db98dca3e2076cc3735a920a3ca505d382bbca2646970667358221220ff192ba66ee4c78fcfd5ab7f93a60a0535a06c2468b9b529fb5b7d9bedbea42364736f6c634300081d0033","linkReferences":{}},"methodIdentifiers":{"UPGRADE_INTERFACE_VERSION()":"ad3cb1cc","admin()":"f851a440","beacon()":"59659e90","createSlot(address,address,(bool,bool,address),(uint256,address,uint256,uint256))":"4ca28e2a","createSlots(address,address,(bool,bool,address),(uint256,address,uint256,uint256),uint256)":"9c41d4a4","emitEvent(uint8,bytes)":"befb8d3d","implementation()":"5c60da1b","initialize(address,address)":"485cc955","isModuleVerified(address)":"508d6112","isSlot(address)":"ed20d489","migrateSlots(address[])":"94c906a2","proxiableUUID()":"52d1902d","registerSlots(address[])":"7ae5592e","setModuleVerified(address,bool)":"5140f7b9","transferAdmin(address)":"75829def","upgradeToAndCall(address,bytes)":"4f1ef286","verifiedModules(address)":"8e53cf9a"},"id":65}