{"abi":[{"type":"constructor","inputs":[],"stateMutability":"nonpayable"},{"type":"function","name":"BASIS_POINTS","inputs":[],"outputs":[{"name":"","type":"uint256","internalType":"uint256"}],"stateMutability":"view"},{"type":"function","name":"MONTH","inputs":[],"outputs":[{"name":"","type":"uint256","internalType":"uint256"}],"stateMutability":"view"},{"type":"function","name":"buy","inputs":[{"name":"account","type":"address","internalType":"address"},{"name":"depositAmount","type":"uint256","internalType":"uint256"},{"name":"selfAssessedPrice","type":"uint256","internalType":"uint256"}],"outputs":[],"stateMutability":"nonpayable"},{"type":"function","name":"cancelPendingUpdates","inputs":[],"outputs":[],"stateMutability":"nonpayable"},{"type":"function","name":"collect","inputs":[],"outputs":[],"stateMutability":"nonpayable"},{"type":"function","name":"collectedTax","inputs":[],"outputs":[{"name":"","type":"uint256","internalType":"uint256"}],"stateMutability":"view"},{"type":"function","name":"currency","inputs":[],"outputs":[{"name":"","type":"address","internalType":"contract IERC20"}],"stateMutability":"view"},{"type":"function","name":"deposit","inputs":[],"outputs":[{"name":"","type":"uint256","internalType":"uint256"}],"stateMutability":"view"},{"type":"function","name":"factory","inputs":[],"outputs":[{"name":"","type":"address","internalType":"address"}],"stateMutability":"view"},{"type":"function","name":"getPendingUpdate","inputs":[],"outputs":[{"name":"","type":"tuple","internalType":"struct PendingUpdate","components":[{"name":"newTaxPercentage","type":"uint256","internalType":"uint256"},{"name":"newModule","type":"address","internalType":"address"},{"name":"hasTaxUpdate","type":"bool","internalType":"bool"},{"name":"hasModuleUpdate","type":"bool","internalType":"bool"}]}],"stateMutability":"view"},{"type":"function","name":"getSlotInfo","inputs":[],"outputs":[{"name":"info","type":"tuple","internalType":"struct SlotInfo","components":[{"name":"recipient","type":"address","internalType":"address"},{"name":"currency","type":"address","internalType":"address"},{"name":"manager","type":"address","internalType":"address"},{"name":"mutableTax","type":"bool","internalType":"bool"},{"name":"mutableModule","type":"bool","internalType":"bool"},{"name":"occupant","type":"address","internalType":"address"},{"name":"price","type":"uint256","internalType":"uint256"},{"name":"taxPercentage","type":"uint256","internalType":"uint256"},{"name":"module","type":"address","internalType":"address"},{"name":"liquidationBountyBps","type":"uint256","internalType":"uint256"},{"name":"minDepositSeconds","type":"uint256","internalType":"uint256"},{"name":"deposit","type":"uint256","internalType":"uint256"},{"name":"collectedTax","type":"uint256","internalType":"uint256"},{"name":"taxOwed","type":"uint256","internalType":"uint256"},{"name":"secondsUntilLiquidation","type":"uint256","internalType":"uint256"},{"name":"insolvent","type":"bool","internalType":"bool"},{"name":"hasPendingTax","type":"bool","internalType":"bool"},{"name":"pendingTaxPercentage","type":"uint256","internalType":"uint256"},{"name":"hasPendingModule","type":"bool","internalType":"bool"},{"name":"pendingModule","type":"address","internalType":"address"}]}],"stateMutability":"view"},{"type":"function","name":"initialize","inputs":[{"name":"_recipient","type":"address","internalType":"address"},{"name":"_currency","type":"address","internalType":"contract IERC20"},{"name":"_config","type":"tuple","internalType":"struct SlotConfig","components":[{"name":"mutableTax","type":"bool","internalType":"bool"},{"name":"mutableModule","type":"bool","internalType":"bool"},{"name":"manager","type":"address","internalType":"address"}]},{"name":"_init","type":"tuple","internalType":"struct SlotInitParams","components":[{"name":"taxPercentage","type":"uint256","internalType":"uint256"},{"name":"module","type":"address","internalType":"address"},{"name":"liquidationBountyBps","type":"uint256","internalType":"uint256"},{"name":"minDepositSeconds","type":"uint256","internalType":"uint256"}]}],"outputs":[],"stateMutability":"nonpayable"},{"type":"function","name":"initializeV2","inputs":[{"name":"_factory","type":"address","internalType":"address"}],"outputs":[],"stateMutability":"nonpayable"},{"type":"function","name":"isInsolvent","inputs":[],"outputs":[{"name":"","type":"bool","internalType":"bool"}],"stateMutability":"view"},{"type":"function","name":"isVacant","inputs":[],"outputs":[{"name":"","type":"bool","internalType":"bool"}],"stateMutability":"view"},{"type":"function","name":"lastSettled","inputs":[],"outputs":[{"name":"","type":"uint256","internalType":"uint256"}],"stateMutability":"view"},{"type":"function","name":"liquidate","inputs":[],"outputs":[],"stateMutability":"nonpayable"},{"type":"function","name":"liquidationBountyBps","inputs":[],"outputs":[{"name":"","type":"uint256","internalType":"uint256"}],"stateMutability":"view"},{"type":"function","name":"manager","inputs":[],"outputs":[{"name":"","type":"address","internalType":"address"}],"stateMutability":"view"},{"type":"function","name":"minDepositSeconds","inputs":[],"outputs":[{"name":"","type":"uint256","internalType":"uint256"}],"stateMutability":"view"},{"type":"function","name":"module","inputs":[],"outputs":[{"name":"","type":"address","internalType":"address"}],"stateMutability":"view"},{"type":"function","name":"multicall","inputs":[{"name":"data","type":"bytes[]","internalType":"bytes[]"}],"outputs":[{"name":"results","type":"bytes[]","internalType":"bytes[]"}],"stateMutability":"nonpayable"},{"type":"function","name":"mutableModule","inputs":[],"outputs":[{"name":"","type":"bool","internalType":"bool"}],"stateMutability":"view"},{"type":"function","name":"mutableTax","inputs":[],"outputs":[{"name":"","type":"bool","internalType":"bool"}],"stateMutability":"view"},{"type":"function","name":"occupant","inputs":[],"outputs":[{"name":"","type":"address","internalType":"address"}],"stateMutability":"view"},{"type":"function","name":"pendingUpdate","inputs":[],"outputs":[{"name":"newTaxPercentage","type":"uint256","internalType":"uint256"},{"name":"newModule","type":"address","internalType":"address"},{"name":"hasTaxUpdate","type":"bool","internalType":"bool"},{"name":"hasModuleUpdate","type":"bool","internalType":"bool"}],"stateMutability":"view"},{"type":"function","name":"price","inputs":[],"outputs":[{"name":"","type":"uint256","internalType":"uint256"}],"stateMutability":"view"},{"type":"function","name":"proposeModuleUpdate","inputs":[{"name":"newModule","type":"address","internalType":"address"}],"outputs":[],"stateMutability":"nonpayable"},{"type":"function","name":"proposeTaxUpdate","inputs":[{"name":"newPct","type":"uint256","internalType":"uint256"}],"outputs":[],"stateMutability":"nonpayable"},{"type":"function","name":"recipient","inputs":[],"outputs":[{"name":"","type":"address","internalType":"address"}],"stateMutability":"view"},{"type":"function","name":"release","inputs":[],"outputs":[],"stateMutability":"nonpayable"},{"type":"function","name":"secondsUntilLiquidation","inputs":[],"outputs":[{"name":"","type":"uint256","internalType":"uint256"}],"stateMutability":"view"},{"type":"function","name":"selfAssess","inputs":[{"name":"newPrice","type":"uint256","internalType":"uint256"}],"outputs":[],"stateMutability":"nonpayable"},{"type":"function","name":"setLiquidationBounty","inputs":[{"name":"newBps","type":"uint256","internalType":"uint256"}],"outputs":[],"stateMutability":"nonpayable"},{"type":"function","name":"taxOwed","inputs":[],"outputs":[{"name":"","type":"uint256","internalType":"uint256"}],"stateMutability":"view"},{"type":"function","name":"taxPercentage","inputs":[],"outputs":[{"name":"","type":"uint256","internalType":"uint256"}],"stateMutability":"view"},{"type":"function","name":"topUp","inputs":[{"name":"amount","type":"uint256","internalType":"uint256"}],"outputs":[],"stateMutability":"nonpayable"},{"type":"function","name":"withdraw","inputs":[{"name":"amount","type":"uint256","internalType":"uint256"}],"outputs":[],"stateMutability":"nonpayable"},{"type":"event","name":"Bought","inputs":[{"name":"buyer","type":"address","indexed":true,"internalType":"address"},{"name":"previousOccupant","type":"address","indexed":true,"internalType":"address"},{"name":"price","type":"uint256","indexed":false,"internalType":"uint256"},{"name":"deposit","type":"uint256","indexed":false,"internalType":"uint256"},{"name":"selfAssessedPrice","type":"uint256","indexed":false,"internalType":"uint256"}],"anonymous":false},{"type":"event","name":"Deposited","inputs":[{"name":"depositor","type":"address","indexed":true,"internalType":"address"},{"name":"amount","type":"uint256","indexed":false,"internalType":"uint256"}],"anonymous":false},{"type":"event","name":"Initialized","inputs":[{"name":"version","type":"uint64","indexed":false,"internalType":"uint64"}],"anonymous":false},{"type":"event","name":"Liquidated","inputs":[{"name":"liquidator","type":"address","indexed":true,"internalType":"address"},{"name":"occupant","type":"address","indexed":true,"internalType":"address"},{"name":"bounty","type":"uint256","indexed":false,"internalType":"uint256"}],"anonymous":false},{"type":"event","name":"LiquidationBountyUpdated","inputs":[{"name":"newBps","type":"uint256","indexed":false,"internalType":"uint256"}],"anonymous":false},{"type":"event","name":"ModuleCallFailed","inputs":[{"name":"callbackName","type":"string","indexed":false,"internalType":"string"}],"anonymous":false},{"type":"event","name":"ModuleFeePaid","inputs":[{"name":"module","type":"address","indexed":true,"internalType":"address"},{"name":"amount","type":"uint256","indexed":false,"internalType":"uint256"},{"name":"feeBps","type":"uint256","indexed":false,"internalType":"uint256"}],"anonymous":false},{"type":"event","name":"ModuleUpdateProposed","inputs":[{"name":"newModule","type":"address","indexed":false,"internalType":"address"}],"anonymous":false},{"type":"event","name":"PendingUpdateApplied","inputs":[{"name":"newTaxPercentage","type":"uint256","indexed":false,"internalType":"uint256"},{"name":"newModule","type":"address","indexed":false,"internalType":"address"}],"anonymous":false},{"type":"event","name":"PendingUpdateCancelled","inputs":[],"anonymous":false},{"type":"event","name":"PriceUpdated","inputs":[{"name":"oldPrice","type":"uint256","indexed":false,"internalType":"uint256"},{"name":"newPrice","type":"uint256","indexed":false,"internalType":"uint256"}],"anonymous":false},{"type":"event","name":"Released","inputs":[{"name":"occupant","type":"address","indexed":true,"internalType":"address"},{"name":"refund","type":"uint256","indexed":false,"internalType":"uint256"}],"anonymous":false},{"type":"event","name":"Settled","inputs":[{"name":"taxOwed","type":"uint256","indexed":false,"internalType":"uint256"},{"name":"taxPaid","type":"uint256","indexed":false,"internalType":"uint256"},{"name":"depositRemaining","type":"uint256","indexed":false,"internalType":"uint256"}],"anonymous":false},{"type":"event","name":"SlotCreated","inputs":[{"name":"slot","type":"address","indexed":true,"internalType":"address"},{"name":"recipient","type":"address","indexed":true,"internalType":"address"},{"name":"currency","type":"address","indexed":true,"internalType":"address"},{"name":"config","type":"tuple","indexed":false,"internalType":"struct SlotConfig","components":[{"name":"mutableTax","type":"bool","internalType":"bool"},{"name":"mutableModule","type":"bool","internalType":"bool"},{"name":"manager","type":"address","internalType":"address"}]},{"name":"initParams","type":"tuple","indexed":false,"internalType":"struct SlotInitParams","components":[{"name":"taxPercentage","type":"uint256","internalType":"uint256"},{"name":"module","type":"address","internalType":"address"},{"name":"liquidationBountyBps","type":"uint256","internalType":"uint256"},{"name":"minDepositSeconds","type":"uint256","internalType":"uint256"}]}],"anonymous":false},{"type":"event","name":"TaxCollected","inputs":[{"name":"recipient","type":"address","indexed":true,"internalType":"address"},{"name":"amount","type":"uint256","indexed":false,"internalType":"uint256"}],"anonymous":false},{"type":"event","name":"TaxUpdateProposed","inputs":[{"name":"newPercentage","type":"uint256","indexed":false,"internalType":"uint256"}],"anonymous":false},{"type":"event","name":"Withdrawn","inputs":[{"name":"occupant","type":"address","indexed":true,"internalType":"address"},{"name":"amount","type":"uint256","indexed":false,"internalType":"uint256"}],"anonymous":false},{"type":"error","name":"AddressEmptyCode","inputs":[{"name":"target","type":"address","internalType":"address"}]},{"type":"error","name":"CannotBuyFromYourself","inputs":[]},{"type":"error","name":"FailedCall","inputs":[]},{"type":"error","name":"InsufficientDeposit","inputs":[]},{"type":"error","name":"InvalidCurrency","inputs":[]},{"type":"error","name":"InvalidInitialization","inputs":[]},{"type":"error","name":"InvalidLiquidationBounty","inputs":[]},{"type":"error","name":"InvalidPrice","inputs":[]},{"type":"error","name":"InvalidRecipient","inputs":[]},{"type":"error","name":"InvalidTaxPercentage","inputs":[]},{"type":"error","name":"ModuleNotMutable","inputs":[]},{"type":"error","name":"NoPendingUpdate","inputs":[]},{"type":"error","name":"NotInitializing","inputs":[]},{"type":"error","name":"NotInsolvent","inputs":[]},{"type":"error","name":"NotManager","inputs":[]},{"type":"error","name":"NotOccupant","inputs":[]},{"type":"error","name":"NothingToCollect","inputs":[]},{"type":"error","name":"ReentrancyGuardReentrantCall","inputs":[]},{"type":"error","name":"SafeERC20FailedOperation","inputs":[{"name":"token","type":"address","internalType":"address"}]},{"type":"error","name":"TaxNotMutable","inputs":[]}],"bytecode":{"object":"0x608060405234801561000f575f5ffd5b5060017f9b779b17422d0df92223018b32b4d1fa46e071723d6817e2486d003becc55f005561003c610041565b6100f3565b7ff0c57e16840df040f15088dc2f81fe391c3923bec73e23a9662efc9c229c6a00805468010000000000000000900460ff16156100915760405163f92ee8a960e01b815260040160405180910390fd5b80546001600160401b03908116146100f05780546001600160401b0319166001600160401b0390811782556040519081527fc7f505b2f371ae2175ee4913f4499e1f2633a7b5936321eed1cdaeb6115181d29060200160405180910390a15b50565b6126c4806101005f395ff3fe608060405234801561000f575f5ffd5b5060043610610228575f3560e01c806386d1a69f1161012a578063c15e1e2c116100b4578063e1f1c4a711610079578063e1f1c4a71461054c578063e522538114610555578063e5a6b10f1461055d578063f05fb4e814610570578063f798c26514610578575f5ffd5b8063c15e1e2c1461045e578063c45a01551461050e578063caad868014610526578063d0e30db014610539578063d5999a5c14610542575f5ffd5b8063a59ac6dd116100fa578063a59ac6dd14610407578063a659109e1461041a578063ac9650d814610422578063ae7b6d1614610442578063b86d52981461044b575f5ffd5b806386d1a69f146103d85780639078aefe146103e057806394e247a8146103e9578063a035b1fe146103fe575f5ffd5b8063481c6a75116101b657806366d003ac1161017b57806366d003ac1461038557806372e74fd014610397578063755d0817146103aa5780637ed3a264146103bd57806384a88698146103d0575f5ffd5b8063481c6a751461032157806350017f3e1461034c578063509f5c321461035f5780635c35e767146103685780635f09701714610371575f5ffd5b806328a07025116101fc57806328a07025146102d757806329b6eca9146102df5780632e1a7d4d146102f2578063390b4ad9146103055780633f25d84b14610318575f5ffd5b8062a4dcac1461022c578063057287711461028e5780631563941f146102a457806326bade51146102b9575b5f5ffd5b600c54600d5461025991906001600160a01b0381169060ff600160a01b8204811691600160a81b90041684565b604080519485526001600160a01b03909316602085015290151591830191909152151560608201526080015b60405180910390f35b61029661058c565b604051908152602001610285565b6102b76102b2366004612164565b6105ee565b005b6003546001600160a01b0316155b6040519015158152602001610285565b6102b7610874565b6102b76102ed366004612238565b610a89565b6102b761030036600461225a565b610b63565b6102b761031336600461225a565b610c8c565b610296600b5481565b600254610334906001600160a01b031681565b6040516001600160a01b039091168152602001610285565b6102b761035a36600461225a565b610d56565b610296600a5481565b61029660075481565b6001546102c790600160a81b900460ff1681565b5f54610334906001600160a01b031681565b6102b76103a5366004612238565b610e27565b600354610334906001600160a01b031681565b6102b76103cb36600461225a565b610ed0565b6102b7610f53565b6102b7610fff565b61029660085481565b6103f1611166565b6040516102859190612271565b61029660045481565b6102b76104153660046123df565b6112aa565b610296611531565b610435610430366004612411565b6115c5565b60405161028591906124b0565b61029660055481565b600654610334906001600160a01b031681565b6104ce604080516080810182525f8082526020820181905291810182905260608101919091525060408051608081018252600c548152600d546001600160a01b038116602083015260ff600160a01b82048116151593830193909352600160a81b90049091161515606082015290565b6040516102859190815181526020808301516001600160a01b03169082015260408083015115159082015260609182015115159181019190915260800190565b600e546103349061010090046001600160a01b031681565b6102b761053436600461225a565b6116ac565b61029660095481565b61029662278d0081565b61029661271081565b6102b76117f8565b600154610334906001600160a01b031681565b6102c76118bb565b6001546102c790600160a01b900460ff1681565b6003545f906001600160a01b03166105a357505f90565b5f600a54426105b29190612527565b90506105c361271062278d0061253a565b816005546004546105d4919061253a565b6105de919061253a565b6105e89190612551565b91505090565b5f6105f76118e4565b805490915060ff600160401b820416159067ffffffffffffffff165f8115801561061e5750825b90505f8267ffffffffffffffff16600114801561063a5750303b155b905081158015610648575080155b156106665760405163f92ee8a960e01b815260040160405180910390fd5b845467ffffffffffffffff19166001178555831561069057845460ff60401b1916600160401b1785555b600e5460ff16156106de5760405162461bcd60e51b8152602060048201526013602482015272185b1c9958591e481a5b9a5d1a585b1a5e9959606a1b60448201526064015b60405180910390fd5b600e805460ff191660011790556001600160a01b03891661071257604051634e46966960e11b815260040160405180910390fd5b6001600160a01b03881661073957604051631eb3268560e31b815260040160405180910390fd5b85515f0361075a57604051637c5ae86360e01b815260040160405180910390fd5b6127108660400151111561078157604051632b95c41760e01b815260040160405180910390fd5b5f80546001600160a01b03808c166001600160a01b031992831617909255600180548a516020808d01511515600160a81b0260ff60a81b19921515600160a01b026001600160a81b03199094168f8816179390931791909116919091179091556040808b0151600280549186169185169190911790558951600555908901516006805491909416921691909117909155860151600755606086015160085542600a55831561086957845460ff60401b19168555604051600181527fc7f505b2f371ae2175ee4913f4499e1f2633a7b5936321eed1cdaeb6115181d29060200160405180910390a15b505050505050505050565b61087c61190c565b6003546001600160a01b03166108a5576040516306963c9760e21b815260040160405180910390fd5b6108ad611927565b600954156108ce576040516306963c9760e21b815260040160405180910390fd5b6003546007546001600160a01b03909116905f90158015906108f157505f600b54115b1561092c57612710600754600b54610909919061253a565b6109139190612551565b905080600b5f8282546109269190612527565b90915550505b600b548015610942575f600b5561094281611a37565b600380546001600160a01b03191690555f60045542600a55610962611bd0565b811561097f5760015461097f906001600160a01b03163384611cb8565b60408051808201825260098152686f6e52656c6561736560b81b602082015290515f60248201526001600160a01b03851660448201526109ed91906064015b60408051601f198184030181529190526020810180516001600160e01b031663fbfbfff960e01b179052611ced565b6040518281526001600160a01b0384169033907fde0aa27286f5cb3a4ed853dc4823ead62d63e92cdf13de09d6aece56970721a49060200160405180910390a3604080513360208201526001600160a01b0385169181019190915260608101839052610a6e906003906080015b604051602081830303815290604052611d9a565b505050610a8760015f51602061266f5f395f51905f5255565b565b60025f610a946118e4565b8054909150600160401b900460ff1680610abc5750805467ffffffffffffffff808416911610155b15610ada5760405163f92ee8a960e01b815260040160405180910390fd5b8054600160401b67ffffffffffffffff841668ffffffffffffffffff199092168217178255600e8054610100600160a81b0319166101006001600160a01b03871602179055815460ff60401b191682556040519081527fc7f505b2f371ae2175ee4913f4499e1f2633a7b5936321eed1cdaeb6115181d2906020015b60405180910390a1505050565b610b6b61190c565b6003546001600160a01b03163314610b9657604051635aa3d72360e01b815260040160405180910390fd5b610b9e611927565b600954811115610bc15760405163070f6eed60e11b815260040160405180910390fd5b5f81600954610bd09190612527565b90505f610bde600454611e13565b905080821015610c015760405163070f6eed60e11b815260040160405180910390fd5b6009829055600154610c1d906001600160a01b03163385611cb8565b60405183815233907f7084f5476618d8e60b11ef0d7d3f06914655adb8793e28ff7f018d4c76d505d59060200160405180910390a260408051336020820152908101849052610c7190600690606001610a5a565b5050610c8960015f51602061266f5f395f51905f5255565b50565b6002546001600160a01b03163314610cb75760405163607e454560e11b815260040160405180910390fd5b600154600160a01b900460ff16610ce157604051635065cb0360e11b815260040160405180910390fd5b805f03610d0157604051637c5ae86360e01b815260040160405180910390fd5b600c819055600d805460ff60a01b1916600160a01b1790556040517f7cf470f0c2630106678666bdacd75e5d344a955a508308a089277be66a64931690610d4b9083815260200190565b60405180910390a150565b610d5e61190c565b6003546001600160a01b0316610d8757604051635aa3d72360e01b815260040160405180910390fd5b610d8f611927565b600154610da7906001600160a01b0316333084611e57565b8060095f828254610db89190612570565b909155505060405181815233907f2da466a7b24304f47e87fa2e1e5a81b9831ce54fec19055ce277ca2f39ba42c49060200160405180910390a260408051336020820152908101829052610e1190600590606001610a5a565b610c8960015f51602061266f5f395f51905f5255565b6002546001600160a01b03163314610e525760405163607e454560e11b815260040160405180910390fd5b600154600160a81b900460ff16610e7b57604051621553a760e11b815260040160405180910390fd5b600d8054600161ff0160a01b0319166001600160a01b038316908117600160a81b179091556040519081527fbb2f63938c0e8adf80d0c1435385f12cee682a4f525c39ddc7d8b97ac6b63b2090602001610d4b565b6002546001600160a01b03163314610efb5760405163607e454560e11b815260040160405180910390fd5b612710811115610f1e57604051632b95c41760e01b815260040160405180910390fd5b60078190556040518181527fa6635fc6998b0f79d9889a9d1cba35ab931d2e68ebe46f897c1fb915a5b874e490602001610d4b565b6002546001600160a01b03163314610f7e5760405163607e454560e11b815260040160405180910390fd5b600d54600160a01b900460ff16158015610fa25750600d54600160a81b900460ff16155b15610fc0576040516319b2c6ef60e31b815260040160405180910390fd5b5f600c819055600d80546001600160b01b03191690556040517fd1d14e5a3422e78e04acd6e6818471fa1677cda6d3736619e5618d07ac8a62579190a1565b61100761190c565b6003546001600160a01b0316331461103257604051635aa3d72360e01b815260040160405180910390fd5b61103a611927565b600354600954600b546001600160a01b03909216918015611076575f600b81905554600154611076916001600160a01b03918216911683611cb8565b600380546001600160a01b03191690555f600481905560095542600a5561109b611bd0565b81156110b8576001546110b8906001600160a01b03168484611cb8565b60408051808201825260098152686f6e52656c6561736560b81b602082015290515f60248201526001600160a01b03851660448201526110fb91906064016109be565b826001600160a01b03167fb21fb52d5749b80f3182f8c6992236b5e5576681880914484d7f4c9b062e619e8360405161113691815260200190565b60405180910390a2604080516001600160a01b0385166020820152908101839052610a6e90600290606001610a5a565b60408051610280810182525f6101a082018190526101c082018190526101e082018190526102008201819052610220820181905261024082018190526102608201819052546001600160a01b039081168252600154808216602084015260025482169383019390935260ff600160a01b8404811615156060840152600160a81b90930490921615156080820152600354821660a082015260045460c082015260055460e0820152600654909116610100820152600754610120820152600854610140820152600954610160820152600b5461018082015261124561058c565b6101a0820152611253611531565b6101c08201526112616118bb565b15156101e0820152600d5460ff600160a01b820481161515610200840152600c54610220840152600160a81b82041615156102408301526001600160a01b031661026082015290565b6112b261190c565b805f036112d15760405162bfc92160e01b815260040160405180910390fd5b6001600160a01b0383166112f857604051634e46966960e11b815260040160405180910390fd5b6003546001600160a01b039081169084160361132757604051636a25cdef60e01b815260040160405180910390fd5b6004546003546001600160a01b0316801561134457611344611927565b61134c611bd0565b6113568484611e93565b6001600160a01b03811661138757831561138257600154611382906001600160a01b0316333087611e57565b6113e7565b5f6113928584612570565b905080156113b2576001546113b2906001600160a01b0316333084611e57565b5f836009546113c19190612570565b5f600955905080156113e4576001546113e4906001600160a01b03168483611cb8565b50505b600380546001600160a01b0319166001600160a01b038781169182179092556004859055600986905542600a9081556040805180820182529182526937b72a3930b739b332b960b11b6020830152515f6024820152928416604484015260648301919091526114829160840160408051601f198184030181529190526020810180516001600160e01b0316637807099f60e11b179052611ced565b60408051838152602081018690529081018490526001600160a01b0380831691908716907f7ce543d1780f3bdc3dac42da06c95da802653cd1b212b8d74ec3e3c33ad7095c9060600160405180910390a3604080516001600160a01b038088166020830152831691810191909152606081018390526080810185905260a081018490526115149060019060c001610a5a565b505061152c60015f51602061266f5f395f51905f5255565b505050565b6003545f906001600160a01b031661154957505f1990565b5f61155261058c565b90505f8160095411611564575f611572565b816009546115729190612527565b90505f600554600454611585919061253a565b9050805f03611598575f19935050505090565b806127106115a962278d008561253a565b6115b3919061253a565b6115bd9190612551565b935050505090565b604080515f8152602081019091526060908267ffffffffffffffff8111156115ef576115ef6120d8565b60405190808252806020026020018201604052801561162257816020015b606081526020019060019003908161160d5790505b5091505f5b838110156116a35761167e3086868481811061164557611645612583565b90506020028101906116579190612597565b8560405160200161166a939291906125f8565b604051602081830303815290604052611ec0565b83828151811061169057611690612583565b6020908102919091010152600101611627565b50505b92915050565b6116b461190c565b6003546001600160a01b031633146116df57604051635aa3d72360e01b815260040160405180910390fd5b805f036116fe5760405162bfc92160e01b815260040160405180910390fd5b611706611927565b600480549082905561171782611f60565b604080518082018252600d81526c6f6e507269636555706461746560981b602082015290515f60248201526044810183905260648101849052611787919060840160408051601f198184030181529190526020810180516001600160e01b0316636d9ac01f60e11b179052611ced565b60408051828152602081018490527f945c1c4e99aa89f648fbfe3df471b916f719e16d960fcec0737d4d56bd696838910160405180910390a16117e160048284604051602001610a5a929190918252602082015260400190565b50610c8960015f51602061266f5f395f51905f5255565b61180061190c565b611808611927565b600b545f81900361182c57604051637b2c2fef60e01b815260040160405180910390fd5b5f600b5561183981611a37565b5f546040518281526001600160a01b03909116907f7f1b726f82f7a14636a7a5932448f1bce683188520ba3150fd8423989353ebf29060200160405180910390a25f54604080516001600160a01b03909216602083015281018290526118a490600790606001610a5a565b50610a8760015f51602061266f5f395f51905f5255565b6003545f906001600160a01b03166118d257505f90565b6009546118dd61058c565b1015905090565b5f807ff0c57e16840df040f15088dc2f81fe391c3923bec73e23a9662efc9c229c6a006116a6565b611914611f8f565b60025f51602061266f5f395f51905f5255565b6003546001600160a01b031661193d5742600a55565b5f600a544261194c9190612527565b9050805f036119585750565b5f61196861271062278d0061253a565b82600554600454611979919061253a565b611983919061253a565b61198d9190612551565b90505f60095482106119bf576009549050600954600b5f8282546119b19190612570565b90915550505f6009556119f1565b8190508160095f8282546119d39190612527565b9250508190555081600b5f8282546119eb9190612570565b90915550505b42600a556009546040805184815260208101849052908101919091527f321f57f44af402708b8b3bad0bd10012cd568d8696946e26edeb86178bb7c27e90606001610b56565b6006545f9081906001600160a01b031615611b385760065460408051600481526024810182526020810180516001600160e01b03166324a9d85360e01b17905290515f9283926001600160a01b0390911691611a939190612617565b5f60405180830381855afa9150503d805f8114611acb576040519150601f19603f3d011682016040523d82523d5f602084013e611ad0565b606091505b5091509150818015611ae457506020815110155b15611b35575f81806020019051810190611afe9190612622565b90505f81118015611b1157506127108111155b15611b3357925082612710611b26828861253a565b611b309190612551565b94505b505b50505b8115611ba457600654600154611b5b916001600160a01b03918216911684611cb8565b60065460408051848152602081018490526001600160a01b03909216917f40669d30489222de84454ebca77498791f4b96b7032f778f68c4a2982d8f4393910160405180910390a25b5f5461152c906001600160a01b0316611bbd8486612527565b6001546001600160a01b03169190611cb8565b600d54600160a01b900460ff16158015611bf45750600d54600160a81b900460ff16155b15611bfb57565b600554600654600d546001600160a01b0390911690600160a01b900460ff1615611c2a57600c54600581905591505b600d54600160a81b900460ff1615611c5f5750600d54600680546001600160a01b0319166001600160a01b0390921691821790555b5f600c55600d80546001600160b01b0319169055604080518381526001600160a01b03831660208201527f360f44eea6467eed3e8da16fc74882662ad6a7e83fc0b898b71f868b76047e7d910160405180910390a15050565b611cc58383836001611fbe565b61152c57604051635274afe760e01b81526001600160a01b03841660048201526024016106d5565b6006546001600160a01b0316611d01575050565b6006546040515f916001600160a01b0316906207a12090611d23908590612617565b5f604051808303815f8787f1925050503d805f8114611d5d576040519150601f19603f3d011682016040523d82523d5f602084013e611d62565b606091505b505090508061152c577fccc7504271f650671d66630b7444c1e05d062ec372718f01e2801ab86a7b47bc83604051610b569190612639565b600e5461010090046001600160a01b0316611db3575050565b600e5460405163befb8d3d60e01b81526101009091046001600160a01b03169063befb8d3d90611de9908590859060040161264b565b5f604051808303815f87803b158015611e00575f5ffd5b505af192505050801561152c57505b5050565b5f6008545f03611e2457505f919050565b611e3361271062278d0061253a565b600854600554611e43908561253a565b611e4d919061253a565b6116a69190612551565b611e65848484846001612020565b611e8d57604051635274afe760e01b81526001600160a01b03851660048201526024016106d5565b50505050565b5f611e9d82611e13565b90508083101561152c5760405163070f6eed60e11b815260040160405180910390fd5b60605f611ecd848461208d565b9050808015611eee57505f3d1180611eee57505f846001600160a01b03163b115b15611f0357611efb6120a0565b9150506116a6565b8015611f2d57604051639996b31560e01b81526001600160a01b03851660048201526024016106d5565b3d15611f4057611f3b6120b9565b611f59565b60405163d6bda27560e01b815260040160405180910390fd5b5092915050565b5f611f6a82611e13565b9050806009541015611e0f5760405163070f6eed60e11b815260040160405180910390fd5b5f51602061266f5f395f51905f5254600203610a8757604051633ee5aeb560e01b815260040160405180910390fd5b60405163a9059cbb60e01b5f8181526001600160a01b038616600452602485905291602083604481808b5af1925060015f51148316612014578383151615612008573d5f823e3d81fd5b5f873b113d1516831692505b60405250949350505050565b6040516323b872dd60e01b5f8181526001600160a01b038781166004528616602452604485905291602083606481808c5af1925060015f5114831661207c578383151615612070573d5f823e3d81fd5b5f883b113d1516831692505b604052505f60605295945050505050565b5f5f5f835160208501865af49392505050565b6040513d81523d5f602083013e3d602001810160405290565b6040513d5f823e3d81fd5b6001600160a01b0381168114610c89575f5ffd5b634e487b7160e01b5f52604160045260245ffd5b6040516060810167ffffffffffffffff8111828210171561211b57634e487b7160e01b5f52604160045260245ffd5b60405290565b6040516080810167ffffffffffffffff8111828210171561211b57634e487b7160e01b5f52604160045260245ffd5b8035801515811461215f575f5ffd5b919050565b5f5f5f5f848603610120811215612179575f5ffd5b8535612184816120c4565b94506020860135612194816120c4565b93506060603f19820112156121a7575f5ffd5b6121af6120ec565b6121bb60408801612150565b81526121c960608801612150565b602082015260808701356121dc816120c4565b604082015292506080609f19820112156121f4575f5ffd5b506121fd612121565b60a0860135815260c0860135612212816120c4565b602082015260e08601356040820152610100909501356060860152509194909350909190565b5f60208284031215612248575f5ffd5b8135612253816120c4565b9392505050565b5f6020828403121561226a575f5ffd5b5035919050565b81516001600160a01b031681526102808101602083015161229d60208401826001600160a01b03169052565b5060408301516122b860408401826001600160a01b03169052565b5060608301516122cc606084018215159052565b5060808301516122e0608084018215159052565b5060a08301516122fb60a08401826001600160a01b03169052565b5060c083015160c083015260e083015160e083015261010083015161232c6101008401826001600160a01b03169052565b506101208301516101208301526101408301516101408301526101608301516101608301526101808301516101808301526101a08301516101a08301526101c08301516101c08301526101e083015161238a6101e084018215159052565b506102008301516123a061020084018215159052565b506102208301516102208301526102408301516123c261024084018215159052565b50610260830151611f596102608401826001600160a01b03169052565b5f5f5f606084860312156123f1575f5ffd5b83356123fc816120c4565b95602085013595506040909401359392505050565b5f5f60208385031215612422575f5ffd5b823567ffffffffffffffff811115612438575f5ffd5b8301601f81018513612448575f5ffd5b803567ffffffffffffffff81111561245e575f5ffd5b8560208260051b8401011115612472575f5ffd5b6020919091019590945092505050565b5f81518084528060208401602086015e5f602082860101526020601f19601f83011685010191505092915050565b5f602082016020835280845180835260408501915060408160051b8601019250602086015f5b8281101561250757603f198786030184526124f2858351612482565b945060209384019391909101906001016124d6565b50929695505050505050565b634e487b7160e01b5f52601160045260245ffd5b818103818111156116a6576116a6612513565b80820281158282048414176116a6576116a6612513565b5f8261256b57634e487b7160e01b5f52601260045260245ffd5b500490565b808201808211156116a6576116a6612513565b634e487b7160e01b5f52603260045260245ffd5b5f5f8335601e198436030181126125ac575f5ffd5b83018035915067ffffffffffffffff8211156125c6575f5ffd5b6020019150368190038213156125da575f5ffd5b9250929050565b5f81518060208401855e5f93019283525090919050565b828482375f8382015f815261260d81856125e1565b9695505050505050565b5f61225382846125e1565b5f60208284031215612632575f5ffd5b5051919050565b602081525f6122536020830184612482565b60ff83168152604060208201525f6126666040830184612482565b94935050505056fe9b779b17422d0df92223018b32b4d1fa46e071723d6817e2486d003becc55f00a2646970667358221220ddd86278dffaf14343539396a44fc4c62c1181e7533ceba86dea19ba369bed9864736f6c634300081d0033","linkReferences":{}},"methodIdentifiers":{"BASIS_POINTS()":"e1f1c4a7","MONTH()":"d5999a5c","buy(address,uint256,uint256)":"a59ac6dd","cancelPendingUpdates()":"84a88698","collect()":"e5225381","collectedTax()":"3f25d84b","currency()":"e5a6b10f","deposit()":"d0e30db0","factory()":"c45a0155","getPendingUpdate()":"c15e1e2c","getSlotInfo()":"94e247a8","initialize(address,address,(bool,bool,address),(uint256,address,uint256,uint256))":"1563941f","initializeV2(address)":"29b6eca9","isInsolvent()":"f05fb4e8","isVacant()":"26bade51","lastSettled()":"509f5c32","liquidate()":"28a07025","liquidationBountyBps()":"5c35e767","manager()":"481c6a75","minDepositSeconds()":"9078aefe","module()":"b86d5298","multicall(bytes[])":"ac9650d8","mutableModule()":"5f097017","mutableTax()":"f798c265","occupant()":"755d0817","pendingUpdate()":"00a4dcac","price()":"a035b1fe","proposeModuleUpdate(address)":"72e74fd0","proposeTaxUpdate(uint256)":"390b4ad9","recipient()":"66d003ac","release()":"86d1a69f","secondsUntilLiquidation()":"a659109e","selfAssess(uint256)":"caad8680","setLiquidationBounty(uint256)":"7ed3a264","taxOwed()":"05728771","taxPercentage()":"ae7b6d16","topUp(uint256)":"50017f3e","withdraw(uint256)":"2e1a7d4d"},"id":64}